{
  "contractName": "Tickets",
  "abi": [
    {
      "inputs": [],
      "stateMutability": "nonpayable",
      "type": "constructor"
    },
    {
      "inputs": [],
      "name": "owner",
      "outputs": [
        {
          "internalType": "address",
          "name": "",
          "type": "address"
        }
      ],
      "stateMutability": "view",
      "type": "function",
      "constant": true
    },
    {
      "inputs": [
        {
          "internalType": "uint256",
          "name": "",
          "type": "uint256"
        }
      ],
      "name": "tickets",
      "outputs": [
        {
          "internalType": "uint256",
          "name": "id",
          "type": "uint256"
        },
        {
          "internalType": "uint256",
          "name": "price",
          "type": "uint256"
        },
        {
          "internalType": "address",
          "name": "owner",
          "type": "address"
        },
        {
          "internalType": "bool",
          "name": "purchased",
          "type": "bool"
        }
      ],
      "stateMutability": "view",
      "type": "function",
      "constant": true
    },
    {
      "inputs": [
        {
          "internalType": "uint256",
          "name": "ticketId",
          "type": "uint256"
        }
      ],
      "name": "buyTicket",
      "outputs": [],
      "stateMutability": "payable",
      "type": "function",
      "payable": true
    },
    {
      "inputs": [
        {
          "internalType": "uint256",
          "name": "ticketId",
          "type": "uint256"
        }
      ],
      "name": "getTicket",
      "outputs": [
        {
          "internalType": "uint256",
          "name": "",
          "type": "uint256"
        },
        {
          "internalType": "uint256",
          "name": "",
          "type": "uint256"
        },
        {
          "internalType": "address",
          "name": "",
          "type": "address"
        },
        {
          "internalType": "bool",
          "name": "",
          "type": "bool"
        }
      ],
      "stateMutability": "view",
      "type": "function",
      "constant": true
    }
  ],
  "bytecode": "0x608060405234801561001057600080fd5b50600080546001600160a01b031916331781555b600a8110156100f35780600182600a8110610041576100416100f9565b600302015567016345785d8a0000600182600a8110610062576100626100f9565b60030201600101819055506000600182600a8110610082576100826100f9565b6003020160020160006101000a8154816001600160a01b0302191690836001600160a01b031602179055506000600182600a81106100c2576100c26100f9565b6003020160020160146101000a81548160ff02191690831515021790555080806100eb9061010f565b915050610024565b50610136565b634e487b7160e01b600052603260045260246000fd5b60006001820161012f57634e487b7160e01b600052601160045260246000fd5b5060010190565b610367806101456000396000f3fe60806040526004361061003f5760003560e01c806350b447121461004457806367dd74ca1461009e5780637dc379fa146100b35780638da5cb5b146100d3575b600080fd5b34801561005057600080fd5b5061006461005f366004610302565b61010b565b604051610095949392919093845260208401929092526001600160a01b031660408301521515606082015260800190565b60405180910390f35b6100b16100ac366004610302565b610147565b005b3480156100bf57600080fd5b506100646100ce366004610302565b610289565b3480156100df57600080fd5b506000546100f3906001600160a01b031681565b6040516001600160a01b039091168152602001610095565b600181600a811061011b57600080fd5b60030201805460018201546002909201549092506001600160a01b03811690600160a01b900460ff1684565b600181600a811061015a5761015a61031b565b600302016001015434146101ac5760405162461bcd60e51b8152602060048201526014602482015273125b98dbdc9c9958dd08115d1a195c881cd95b9d60621b60448201526064015b60405180910390fd5b6000600182600a81106101c1576101c161031b565b60030201600201546001600160a01b0316146102155760405162461bcd60e51b8152602060048201526013602482015272151a58dad95d08185b1c9958591e481cdbdb19606a1b60448201526064016101a3565b33600182600a81106102295761022961031b565b6003020160020160006101000a8154816001600160a01b0302191690836001600160a01b0316021790555060018082600a81106102685761026861031b565b6003020160020160146101000a81548160ff02191690831515021790555050565b6000806000806000600186600a81106102a4576102a461031b565b604080516080810182526003929092029290920180548083526001820154602084018190526002909201546001600160a01b038116948401859052600160a01b900460ff161515606090930183905299909850919650945092505050565b60006020828403121561031457600080fd5b5035919050565b634e487b7160e01b600052603260045260246000fdfea2646970667358221220b2f056eed24439f19e0fdd59a2d5153f08df9e9e6c0a1bf33403a9c39007fd7264736f6c63430008110033",
  "immutableReferences": {},
  "source": "// SPDX-License-Identifier: GPL-3.0\r\n\r\npragma solidity >=0.8.2 <0.9.0;\r\n\r\ncontract Tickets {\r\n    uint256 constant TOTAL_TICKETS = 10;\r\n    address public owner;\r\n\r\n    struct Ticket {\r\n        uint256 id;\r\n        uint256 price;\r\n        address owner; \r\n        bool purchased; // New field to track if the ticket is purchased\r\n    }\r\n\r\n    Ticket[TOTAL_TICKETS] public tickets;\r\n\r\n    constructor() {\r\n        owner = msg.sender; // Set the contract deployer as the owner\r\n        for (uint256 i = 0; i < TOTAL_TICKETS; i++) {\r\n            tickets[i].id = i;\r\n            tickets[i].price = 1 ether / 10; // Set the ticket price (0.1 ETH)\r\n            tickets[i].owner = address(0); // Initialize owner to zero address\r\n            tickets[i].purchased = false; // Initialize purchased status\r\n        }\r\n    }\r\n\r\n    function buyTicket(uint256 ticketId) public payable {\r\n        require(msg.value == tickets[ticketId].price, \"Incorrect Ether sent\");\r\n        require(tickets[ticketId].owner == address(0), \"Ticket already sold\");\r\n\r\n        // Mark the ticket as purchased and set the owner\r\n        tickets[ticketId].owner = msg.sender;\r\n        tickets[ticketId].purchased = true; // Update purchased status\r\n\r\n        // Optionally, you could add logic to transfer Ether to the contract owner\r\n    }\r\n\r\n    function getTicket(uint256 ticketId) public view returns (uint256, uint256, address, bool) {\r\n        Ticket memory ticket = tickets[ticketId];\r\n        return (ticket.id, ticket.price, ticket.owner, ticket.purchased); // Return all relevant ticket data\r\n    }\r\n}\r\n",
  "sourcePath": "C:\\Users\\DELL\\Desktop\\bchain\\ticketsale\\contracts\\Tickets.sol",
  "compiler": {
    "name": "solc",
    "version": "0.8.17+commit.8df45f5f.Emscripten.clang"
  },
  "schemaVersion": "3.4.16",
  "updatedAt": "2024-11-04T06:32:48.321Z",
  "networkType": "ethereum",
  "devdoc": {
    "kind": "dev",
    "methods": {},
    "version": 1
  },
  "userdoc": {
    "kind": "user",
    "methods": {},
    "version": 1
  }
}